:100000000C9446000C9465000C9465000C946500FB
:100010000C9465000C9465000C9465000C946500CC
:100020000C9465000C9465000C9465000C946500BC
:100030000C9465000C94B4000C9465000C9465005D
:100040000C9465000C9465000C9465000C9465009C
:100050000C9465000C9465000C9465000C9465008C
:100060000C9465000C9465000C9465000C9465007C
:100070000C9465000C9465000C9465000C9465006C
:100080000C9465000C9465000C94650011241FBE4F
:10009000CFEFD0E4DEBFCDBF11E0A0E0B1E0ECE6F1
:1000A000F4E000E00BBF02C007900D92A231B1074F
:1000B000D9F711E0A2E1B1E001C01D92AF31B10763
:1000C000E1F70E94B7010C9434020C940000CF9326
:1000D000C82F8A3019F48DE00E9467009091C0000B
:1000E00095FFFCCFC093C60080E090E0CF910895CB
:1000F00060930001709301018093020190930301CA
:1001000060931701709318018093190190931A015D
:1001100008958BE0809381008DE790E090938900B3
:100120008093880082E080936F0010928500109287
:1001300084008091000190910101A0910201B09191
:1001400003018093170190931801A0931901B093B4
:100150001A018FB780688FBF0895109281000895AB
:1001600081E080931B0108951F920F920FB60F92AA
:1001700011240BB60F922F933F934F935F936F937E
:100180007F938F939F93AF93BF93EF93FF93809150
:10019000170190911801A0911901B0911A010197CE
:1001A000A109B1098093170190931801A093190137
:1001B000B0931A01892B8A2B8B2B91F40E94B000EB
:1001C0008091000190910101A0910201B091030181
:1001D0008093170190931801A0931901B0931A010D
:1001E000FF91EF91BF91AF919F918F917F916F910F
:1001F0005F914F913F912F910F900BBE0F900FBECB
:100200000F901F901895813081F0E1ECF0E0808133
:1002100088618083E2ECF0E080818660808383E304
:100220008093C4001092C5000895E9ECF0E080814D
:1002300088618083EAECF0E080818660808383E3DC
:100240008093CC001092CD000895813021F08091F0
:10025000C000807208958091C80080720895813036
:1002600021F08091C000807408958091C80080744E
:100270000895813021F08091C000807808958091A8
:10028000C80080780895813029F40DC08091C6009F
:1002900080931C018091C0008823C4F3089580914D
:1002A000CE0080931C018091C8008823C4F3089578
:1002B000613039F09091C00095FFFCCF8093C6006B
:1002C00008959091C80095FFFCCF8093CE000895CB
:1002D000813039F08091C0008823E4F78091C60016
:1002E00008958091C8008823E4F78091CE00089596
:1002F00080911D0190911E01009721F081309105A0
:1003000079F01CC0019729F410921E0110921D0172
:100310001BC081E090E090931E0180931D0114C0EA
:10032000892B39F481E090E090931E0180931D01A8
:100330000BC010921E0110921D0106C081E090E0DA
:1003400090931E0180931D0180911D0190911E01CB
:10035000009719F0019729F007C081E080931601FA
:1003600008951092160108951092160108958FEFC6
:1003700081B912B88AB91BB814B885B987B918B849
:1003800064EF71E080E090E00E9478000E948900B4
:1003900081E090E090931E0180931D0180E00E9417
:1003A000030181E00E94030180911501813059F41D
:1003B00080E00E943901882331F0109212011092DE
:1003C00015011092130180911201811122C08091B8
:1003D0001301863061F480E00E943901811107C069
:1003E00081E088B9809315011092130112C018B8EA
:1003F0001092150180E00E943901882329F080E0E5
:100400000E94680182B905C0809113018F5F8093BB
:10041000130180911501813001F5809312018091C3
:1004200014018130B9F40E94780181E00E94250115
:10043000882329F061E0809116010E94580181E033
:100440000E942F01882319F08091160182B9109221
:10045000140103C081E08093140180911B01882363
:0C046000E1F310921B01A0CFF894FFCF35
:10046C000100000000000002000000006700000016
:02047C0000007E
:00000001FF
