:100000000C9446000C9465000C9465000C946500FB
:100010000C9465000C9465000C9465000C946500CC
:100020000C9465000C9465000C9465000C946500BC
:100030000C9465000C94B4000C9465000C9465005D
:100040000C9465000C9465000C9465000C9465009C
:100050000C9465000C9465000C9465000C9465008C
:100060000C9465000C9465000C9465000C9465007C
:100070000C9465000C9465000C9465000C9465006C
:100080000C9465000C9465000C94650011241FBE4F
:10009000CFEFD0E4DEBFCDBF11E0A0E0B1E0EAE3F6
:1000A000F4E000E00BBF02C007900D92A231B1074F
:1000B000D9F711E0A2E1B1E001C01D92AD31B10765
:1000C000E1F70E94B7010C941B020C940000CF933F
:1000D000C82F8A3019F48DE00E9467009091C0000B
:1000E00095FFFCCFC093C60080E090E0CF910895CB
:1000F00060930001709301018093020190930301CA
:100100006093150170931601809317019093180165
:1001100008958BE0809381008DE790E090938900B3
:100120008093880082E080936F0010928500109287
:1001300084008091000190910101A0910201B09191
:1001400003018093150190931601A0931701B093BA
:1001500018018FB780688FBF0895109281000895AD
:1001600081E08093190108951F920F920FB60F92AC
:1001700011240BB60F922F933F934F935F936F937E
:100180007F938F939F93AF93BF93EF93FF93809150
:10019000150190911601A0911701B09118010197D6
:1001A000A109B1098093150190931601A09317013D
:1001B000B0931801892B8A2B8B2B91F40E94B000ED
:1001C0008091000190910101A0910201B091030181
:1001D0008093150190931601A0931701B093180115
:1001E000FF91EF91BF91AF919F918F917F916F910F
:1001F0005F914F913F912F910F900BBE0F900FBECB
:100200000F901F901895813081F0E1ECF0E0808133
:1002100088618083E2ECF0E080818660808383E304
:100220008093C4001092C5000895E9ECF0E080814D
:1002300088618083EAECF0E080818660808383E3DC
:100240008093CC001092CD000895813021F08091F0
:10025000C000807208958091C80080720895813036
:1002600021F08091C000807408958091C80080744E
:100270000895813021F08091C000807808958091A8
:10028000C80080780895813029F40DC08091C6009F
:1002900080931A018091C0008823C4F3089580914F
:1002A000CE0080931A018091C8008823C4F308957A
:1002B000613039F09091C00095FFFCCF8093C6006B
:1002C00008959091C80095FFFCCF8093CE000895CB
:1002D000813039F08091C0008823E4F78091C60016
:1002E00008958091C8008823E4F78091CE00089596
:1002F00080911B0190911C01009721F081309105A4
:1003000079F01CC0019729F410921C0110921B0176
:100310001BC081E090E090931C0180931B0114C0EE
:10032000892B39F481E090E090931C0180931B01AC
:100330000BC010921C0110921B0106C081E090E0DE
:1003400090931C0180931B0180911B0190911C01D3
:10035000009719F0019729F007C081E080931401FC
:1003600008951092140108951092140108958FEFCA
:1003700081B912B88AB91BB814B885B987B918B849
:1003800064EF71E080E090E00E9478000E948900B4
:1003900081E090E090931C0180931B0180E00E941B
:1003A000030181E00E94030183B18E3F29F481E0C3
:1003B00088B98093130103C018B81092130180917B
:1003C00013018130F9F4809112018130B9F40E9457
:1003D000780181E00E942501882329F061E0809165
:1003E00014010E94580181E00E942F01882319F016
:1003F0008091140182B91092120116C081E080939D
:10040000120112C080E00E943901882329F080E0A7
:100410000E94680182B908C080E00E943901811100
:1004200003C00E94680182B9809119018823E1F319
:0A04300010921901B9CFF894FFCF24
:10043A000100000000000002000000006700000048
:02044A000000B0
:00000001FF
