:100000000C9446000C9465000C9465000C946500FB
:100010000C9465000C9465000C9465000C946500CC
:100020000C9465000C9465000C9465000C946500BC
:100030000C9465000C94B4000C9465000C9465005D
:100040000C9465000C9465000C9465000C9465009C
:100050000C9465000C9465000C9465000C9465008C
:100060000C9465000C9465000C9465000C9465007C
:100070000C9465000C9465000C9465000C9465006C
:100080000C9465000C9465000C94650011241FBE4F
:10009000CFEFD0E4DEBFCDBF11E0A0E0B1E0E4EDF2
:1000A000F3E000E00BBF02C007900D92A231B10750
:1000B000D9F711E0A2E1B1E001C01D92AB31B10767
:1000C000E1F70E94B7010C94E8010C940000CF9373
:1000D000C82F8A3019F48DE00E9467009091C0000B
:1000E00095FFFCCFC093C60080E090E0CF910895CB
:1000F00060930001709301018093020190930301CA
:10010000609313017093140180931501909316016D
:1001100008958BE0809381008DE790E090938900B3
:100120008093880082E080936F0010928500109287
:1001300084008091000190910101A0910201B09191
:1001400003018093130190931401A0931501B093C0
:1001500016018FB780688FBF0895109281000895AF
:1001600081E08093170108951F920F920FB60F92AE
:1001700011240BB60F922F933F934F935F936F937E
:100180007F938F939F93AF93BF93EF93FF93809150
:10019000130190911401A0911501B09116010197DE
:1001A000A109B1098093130190931401A093150143
:1001B000B0931601892B8A2B8B2B91F40E94B000EF
:1001C0008091000190910101A0910201B091030181
:1001D0008093130190931401A0931501B09316011D
:1001E000FF91EF91BF91AF919F918F917F916F910F
:1001F0005F914F913F912F910F900BBE0F900FBECB
:100200000F901F901895813081F0E1ECF0E0808133
:1002100088618083E2ECF0E080818660808383E304
:100220008093C4001092C5000895E9ECF0E080814D
:1002300088618083EAECF0E080818660808383E3DC
:100240008093CC001092CD000895813021F08091F0
:10025000C000807208958091C80080720895813036
:1002600021F08091C000807408958091C80080744E
:100270000895813021F08091C000807808958091A8
:10028000C80080780895813029F40DC08091C6009F
:10029000809318018091C0008823C4F30895809151
:1002A000CE00809318018091C8008823C4F308957C
:1002B000613039F09091C00095FFFCCF8093C6006B
:1002C00008959091C80095FFFCCF8093CE000895CB
:1002D000813039F08091C0008823E4F78091C60016
:1002E00008958091C8008823E4F78091CE00089596
:1002F0008091190190911A01009721F081309105A8
:1003000079F01CC0019729F410921A01109219017A
:100310001BC081E090E090931A018093190114C0F2
:10032000892B39F481E090E090931A0180931901B0
:100330000BC010921A011092190106C081E090E0E2
:1003400090931A01809319018091190190911A01DB
:10035000009719F0019729F007C081E080931201FE
:1003600008951092120108951092120108958FEFCE
:1003700081B912B88AB91BB868EE73E080E090E0EA
:100380000E9478000E94890081E090E090931A0119
:100390008093190180E00E9403010E94780180E0AF
:1003A0000E942501882329F060E0809112010E94BB
:1003B000580180E00E942F01882319F080911201DA
:1003C00082B9809117018823E1F310921701E5CFDC
:0403D000F894FFCFCF
:1003D40001000000000000020000000067000000AF
:0203E400000017
:00000001FF
